:100000000C942A000C943C000C943C000C943C0092
:100010000C943C000C943C000C943C000C943C0070
:100020000C943C000C943C000C943C000C943C0060
:100030000C943C000C943C000C943C000C943C0050
:100040000C943C000C943C000C943C000C943C0040
:100050000C943C0011241FBECFE5D8E0DEBFCDBF1D
:1000600020E0A0E6B0E001C01D92A236B207E1F7A1
:100070000E9460010C94BC020C94000060E082E4D9
:100080000E94200160E081E40E94390161E081E486
:100090000E94390162E081E40E94390163E081E459
:1000A0000E94390160E081E40E94530161E081E433
:1000B0000E94530162E081E40E94530163E081E405
:1000C0000E945301089541E650E060E082E40E94FE
:1000D0002D012FEF81EE94E0215080409040E1F718
:1000E00000C0000080916100882371F08091600061
:1000F0008F5F809360002FEF81EE94E0215080406D
:100100009040E1F700C0000080916000813089F4E8
:1001100060E081E40E94460161E081E40E945301B5
:1001200062E081E40E94530163E081E40E94530194
:100130000895823089F460E081E40E94460161E024
:1001400081E40E94460162E081E40E94530163E081
:1001500081E40E9453010895833089F460E081E4D2
:100160000E94460161E081E40E94460162E081E470
:100170000E94460163E081E40E94530108958430A7
:1001800089F460E081E40E94460161E081E40E941C
:10019000460162E081E40E94460163E081E40E943E
:1001A00046010895853089F460E081E40E9453019E
:1001B00061E081E40E94460162E081E40E94460120
:1001C00063E081E40E9446010895863089F460E08E
:1001D00081E40E94530161E081E40E94530162E0E6
:1001E00081E40E94460163E081E40E944601089593
:1001F000873089F460E081E40E94530161E081E48A
:100200000E94530162E081E40E94530163E081E4B3
:100210000E9446010895883091F460E081E40E94D4
:10022000530161E081E40E94530162E081E40E9495
:10023000530163E081E40E9453011092600008952D
:10024000853438F4683038F440E00E94650180E07D
:10025000089581E0089582E00895853430F468308F
:1002600030F40E947B0280E0089581E0089582E0EE
:100270000895853438F4683038F441E00E9465010F
:1002800080E0089581E0089582E00895853438F48F
:10029000683038F441E00E94F00180E0089581E088
:1002A000089582E00895853438F4683038F440E0E9
:1002B0000E94F00180E0089581E0089582E00895B1
:1002C0000E943E000E946300FDCF683008F080C0AD
:1002D000442321F0413009F440C07CC08234B1F0A5
:1002E00018F4813431F078C08334E9F0843441F17A
:1002F00073C02AB381E090E002C0880F991F6A950D
:10030000E2F7809582238ABB80E0089527B381E0DD
:1003100090E002C0880F991F6A95E2F780958223CA
:1003200087BB80E0089524B381E090E002C0880F8D
:10033000991F6A95E2F78095822384BB80E0089537
:1003400021B381E090E002C0880F991F6A95E2F71F
:100350008095822381BB80E008958234A9F018F44F
:10036000813431F03BC08334D9F0843429F136C074
:100370002AB381E090E002C0880F991F6A95E2F7E6
:10038000822B8ABB80E0089527B381E090E002C011
:10039000880F991F6A95E2F7822B87BB80E008954A
:1003A00024B381E090E002C0880F991F6A95E2F7BC
:1003B000822B84BB80E0089521B381E090E002C0ED
:1003C000880F991F6A95E2F7822B81BB80E0089520
:1003D00082E0089584E0089581E0089581E0089521
:1003E000683008F080C0442321F0413009F440C057
:1003F0007CC08234B1F018F4813431F078C0833499
:10040000E9F0843441F173C02BB381E090E002C085
:10041000880F991F6A95E2F7809582238BBB80E055
:10042000089528B381E090E002C0880F991F6A9573
:10043000E2F78095822388BB80E0089525B381E0B0
:1004400090E002C0880F991F6A95E2F78095822399
:1004500085BB80E0089522B381E090E002C0880F60
:10046000991F6A95E2F78095822382BB80E0089508
:100470008234A9F018F4813431F03BC08334D9F0D0
:10048000843429F136C02BB381E090E002C0880F9C
:10049000991F6A95E2F7822B8BBB80E0089528B301
:1004A00081E090E002C0880F991F6A95E2F7822BE5
:1004B00088BB80E0089525B381E090E002C0880FFA
:1004C000991F6A95E2F7822B85BB80E0089522B3DD
:1004D00081E090E002C0880F991F6A95E2F7822BB5
:1004E00082BB80E0089582E0089583E0089581E072
:1004F000089581E008956830D8F58234A9F018F4A1
:10050000813431F037C08334D9F0843429F132C0DA
:1005100089B390E002C0959587956A95E2F781705E
:10052000FA01808380E0089586B390E002C095953B
:1005300087956A95E2F78170FA01808380E00895DB
:1005400083B390E002C0959587956A95E2F7817034
:10055000FA01808380E0089580B390E002C0959511
:1005600087956A95E2F78170FA01808380E00895AB
:0C05700082E0089581E00895F894FFCF28
:00000001FF
