:100000000C942A000C943E010C944F010C943C007B
:100010000C943C000C940B050C943C000C943C009C
:100020000C943C000C943C000C943C000C947A041E
:100030000C943C000C943C000C943C000C943C0050
:100040000C943C000C943C000C943C000C943C0040
:100050000C943C0011241FBECFE5D8E0DEBFCDBF1D
:1000600020E0A0E6B0E001C01D92A938B207E1F798
:100070000E9412020C947A050C94000040E062E0A9
:1000800084E40E94170241E062E084E40E949B0243
:1000900040E063E084E40E94170241E063E084E40E
:1000A0000E949B0260E081E40E94EB0161E081E438
:1000B0000E94EB0162E081E40E94EB0163E081E4D5
:1000C0000E94EB01789463E080E00E943A0380E0B4
:1000D0000E941F0363E081E00E943A0381E00E94D6
:1000E0001F0382E00E94BA0382E00E94E0030895A9
:1000F00080916100813089F460E081E40E94F80120
:1001000061E081E40E94050262E081E40E94050250
:1001100063E081E40E94050286C0823089F460E0D9
:1001200081E40E94F80161E081E40E94F80162E04C
:1001300081E40E94050263E081E40E94050273C02D
:10014000833089F460E081E40E94F80161E081E499
:100150000E94F80162E081E40E94F80163E081E41A
:100160000E94050260C0843089F460E081E40E944E
:10017000F80161E081E40E94F80162E081E40E94FC
:10018000F80163E081E40E94F8014DC0853089F4F4
:1001900060E081E40E94050261E081E40E94F801D0
:1001A00062E081E40E94F80163E081E40E94F801CA
:1001B0003AC0863089F460E081E40E94050261E083
:1001C00081E40E94050262E081E40E94F80163E09C
:1001D00081E40E94F80127C0873089F460E081E45F
:1001E0000E94050261E081E40E94050262E081E470
:1001F0000E94050263E081E40E94F80114C0883087
:1002000091F460E081E40E94050261E081E40E94D3
:10021000050262E081E40E94050263E081E40E943D
:1002200005021092610080916000882331F14091B5
:10023000660050916700609168007091690082E0EB
:100240000E94240460E081E40E94050261E081E4F0
:100250000E94050262E081E40E94050263E081E4FD
:100260000E94050240916200509163006091640019
:100270007091650082E00E94240408951F920F92FD
:100280000FB60F9211248F93809161008F5F80933E
:1002900061008F910F900FBE0F901F9018951F92C5
:1002A0000F920FB60F9211248F939F93AF93BF932A
:1002B000809160008F5F809360008130C9F484E694
:1002C00090E0A0E0B0E08093660090936700A09378
:1002D0006800B093690084E893E0A0E0B0E0809308
:1002E000620090936300A0936400B09365006AC0BD
:1002F0008230C9F488EC90E0A0E0B0E08093660022
:1003000090936700A0936800B093690080E293E047
:10031000A0E0B0E08093620090936300A09364003B
:10032000B09365004FC08330C9F48CE291E0A0E047
:10033000B0E08093660090936700A0936800B0934C
:1003400069008CEB92E0A0E0B0E0809362009093B3
:100350006300A0936400B093650034C08430A9F4B6
:1003600084EF91E0A0E0B0E0809366009093670096
:10037000A0936800B093690080936200909363003B
:10038000A0936400B09365001DC08530C9F480E27D
:1003900093E0A0E0B0E08093660090936700A093A4
:1003A0006800B093690088EC90E0A0E0B0E0809332
:1003B000620090936300A0936400B093650002C054
:1003C00010926000BF91AF919F918F910F900FBEDF
:1003D0000F901F901895853438F4683038F441E058
:1003E0000E94170280E0089581E0089582E0089558
:1003F000853438F4683038F441E00E949B0280E094
:10040000089581E0089582E00895853438F46830D5
:1004100038F440E00E949B0280E0089581E0089556
:1004200082E008950E943E000E947800FDCF68306F
:1004300008F079C041113DC0813469F42AB381E0EC
:1004400090E002C0880F991F6A95E2F78095822399
:100450008ABB80E00895823469F427B381E090E09C
:1004600002C0880F991F6A95E2F78095822387BBA7
:1004700080E00895833469F424B381E090E002C001
:10048000880F991F6A95E2F78095822384BB80E0EC
:100490000895843409F049C021B381E090E002C09E
:1004A000880F991F6A95E2F78095822381BB80E0CF
:1004B00008954130E1F5813461F42AB381E090E0A0
:1004C00002C0880F991F6A95E2F7822B8ABB80E0F1
:1004D0000895823461F427B381E090E002C0880F70
:1004E000991F6A95E2F7822B87BB80E008958334D9
:1004F00061F424B381E090E002C0880F991F6A95EF
:10050000E2F7822B84BB80E00895843491F421B318
:1005100081E090E002C0880F991F6A95E2F7822B74
:1005200081BB80E0089582E0089581E0089584E031
:10053000089581E00895683008F079C041113DC008
:10054000813469F42BB381E090E002C0880F991FD9
:100550006A95E2F7809582238BBB80E00895823410
:1005600069F428B381E090E002C0880F991F6A9572
:10057000E2F78095822388BB80E00895833469F494
:1005800025B381E090E002C0880F991F6A95E2F7D9
:100590008095822385BB80E00895843409F049C0AA
:1005A00022B381E090E002C0880F991F6A95E2F7BC
:1005B0008095822382BB80E008954130E1F581344B
:1005C00061F42BB381E090E002C0880F991F6A9517
:1005D000E2F7822B8BBB80E00895823461F428B36C
:1005E00081E090E002C0880F991F6A95E2F7822BA4
:1005F00088BB80E00895833461F425B381E090E006
:1006000002C0880F991F6A95E2F7822B85BB80E0B4
:100610000895843491F422B381E090E002C0880F01
:10062000991F6A95E2F7822B82BB80E0089582E0F1
:10063000089581E0089583E0089581E0089583306E
:10064000A8F4811105C08BB780648BBF80E008954A
:10065000813029F48BB780688BBF80E008958230A9
:1006600039F48BB780628BBF80E0089581E00895F4
:1006700081E00895843008F06DC081112CC0653090
:1006800008F06AC0611108C085B78E7F85BF85B745
:100690008D7F85BF82E00895613041F485B7816028
:1006A00085BF85B78D7F85BF82E00895623041F4B4
:1006B00085B78E7F85BF85B7826085BF82E008954C
:1006C000633009F04BC085B7816085BF85B7826014
:1006D00085BF82E00895813059F5653008F040C04B
:1006E000611108C085B78B7F85BF85B7877F85BFC0
:1006F00082E00895613041F485B7846085BF85B795
:10070000877F85BF82E00895623041F485B78B7F93
:1007100085BF85B7886085BF82E00895633011F595
:1007200085B7846085BF85B7886085BF82E00895FE
:100730008230D1F46530D0F4623029F484B78F7BF5
:1007400084BF82E00895633099F484B7806484BFE5
:1007500082E0089581E0089583E0089583E008959C
:1007600083E0089583E0089581E0089583E008958B
:1007700083E0089581110EC083B7877F83BF83B75D
:100780008F7B83BF89B7816089BF8FB780688FBF38
:1007900080E00895813081F0823081F485B5877FD3
:1007A00085BD85B58F7B85BD89B7806489BF8FB7CF
:1007B00080688FBF80E0089580E0089581E008950B
:1007C00081110BC083B7846083BF83B78D7F83BFE4
:1007D00083B78E7F83BF80E00895813069F08230D7
:1007E00069F485B5846085BD85B5826085BD85B5B4
:1007F0008E7F85BD80E0089580E0089581E00895B2
:10080000811107C089B78E7F89BF89B78D7F89BF66
:100810000AC0813041F0823031F489B78F7B89BFC3
:1008200089B78F7789BF81E00895811104C089B7A6
:10083000816089BF07C0813029F0823019F489B7FF
:10084000806489BF81E00895CF92DF92EF92FF929A
:100850000F931F93882309F445C0813009F442C0E7
:10086000823009F03FC06A017B010E940004A8EEBB
:10087000B3E0A70196010E9460056B017C016894BA
:1008800013F8F694E794D794C7941694D1F78B0194
:100890009C010F2EFCE03695279517950795FA9544
:1008A000D1F7F02DCC2051F00F5F1F4F2F4F3F4F4E
:1008B000C194C4BC40E050E0BA010CC014BCFACFF3
:1008C00008B606FEFDCF88B7806488BF4F5F5F4FD4
:1008D0006F4F7F4F401751076207730788F382E01D
:1008E0000E94150481E01F910F91FF90EF90DF901F
:1008F000CF9008951F920F920FB60F9211242F934D
:100900003F934F935F936F937F938F939F93AF9397
:10091000BF93EF93FF9380917300811135C0809155
:100920006F0090917000A0917100B09172000196DB
:10093000A11DB11D80936F0090937000A093710072
:10094000B0937200409181005091820060918300C9
:100950007091840084179507A607B70709F04AC06D
:10096000E0917600F0917700309709F009951092A8
:100970006F001092700010927100109272008091BE
:100980008000819582BF36C080916E008823C9F0B7
:1009900040E064E084E40E949B0240E065E084E47F
:1009A0000E949B0280918700819582BF8091870081
:1009B000909188008F3F910509F0E0F410926E004D
:1009C00019C041E064E084E40E949B0241E065E0DC
:1009D00084E40E949B0280918500819582BF809172
:1009E0008500909186008F3F910509F018F481E011
:1009F00080936E00FF91EF91BF91AF919F918F9186
:100A00007F916F915F914F913F912F910F900FBE0A
:100A10000F901F9018951F920F920FB60F921124EE
:100A20002F933F934F935F936F937F938F939F93F6
:100A3000AF93BF93EF93FF9380916A0090916B0007
:100A4000A0916C00B0916D000196A11DB11D809325
:100A50006A0090936B00A0936C00B0936D0040917E
:100A60007C0050917D0060917E0070917F00841722
:100A70009507A607B70799F4E0917400F091750007
:100A8000309709F0099510926A0010926B0010924D
:100A90006C0010926D0080917800819582BFFF916B
:100AA000EF91BF91AF919F918F917F916F915F91E6
:100AB0004F913F912F910F900FBE0F901F9018955F
:100AC0000E946B05A59F900DB49F900DA49F800D73
:100AD000911D11240895A29FB001B39FC001A39F4F
:100AE000700D811D1124911DB29F700D811D112467
:080AF000911D0895F894FFCF59
:00000001FF
