S01500004C45445F73657175656E6365322E7372656350
S11300000C942A000C949E000C943C000C943C002C
S11300100C943C000C943C000C943C000C943C006C
S11300200C943C000C943C000C943C000C943C005C
S11300300C943C000C943C000C943C000C943C004C
S11300400C943C000C943C000C943C000C943C003C
S11300500C943C0011241FBECFE5D8E0DEBFCDBF19
S113006020E0A0E6B0E001C01D92A136B207E1F79E
S11300700E9499000C9404030C94000040E062E098
S113008084E40E945E0141E062E084E40E94E901AC
S113009060E081E40E94720061E081E40E947200E9
S11300A062E081E40E94720063E081E40E947200D5
S11300B060E081E40E948C0061E081E40E948C0095
S11300C062E081E40E948C0063E081E40E948C0081
S11300D00895789463E080E00E948E0280E00E949C
S11300E074020895853438F4683038F441E00E948D
S11300F05E0180E0089581E0089582E008958534EA
S113010038F4683038F441E00E94E90180E0089551
S113011081E0089582E00895853438F4683038F435
S113012040E00E94E90180E0089581E0089582E0C2
S113013008950E943E000E946900FFCF1F920F9213
S11301400FB60F9211242F933F934F935F936F93A6
S11301507F938F939F93AF93BF93EF93FF9380917C
S113016060008F5F80936000813089F460E081E4F7
S11301700E947F0061E081E40E948C0062E081E4DF
S11301800E948C0063E081E40E948C0086C082306F
S113019089F460E081E40E947F0061E081E40E94D0
S11301A07F0062E081E40E948C0063E081E40E94AD
S11301B08C0073C0833089F460E081E40E947F0086
S11301C061E081E40E947F0062E081E40E947F009C
S11301D063E081E40E948C0060C0843089F460E0B4
S11301E081E40E947F0061E081E40E947F0062E07C
S11301F081E40E947F0063E081E40E947F004DC09F
S1130200853089F460E081E40E948C0061E081E43F
S11302100E947F0062E081E40E947F0063E081E449
S11302200E947F003AC0863089F460E081E40E9435
S11302308C0061E081E40E948C0062E081E40E9411
S11302407F0063E081E40E947F0027C0873089F447
S113025060E081E40E948C0061E081E40E948C00F3
S113026062E081E40E948C0063E081E40E947F00EC
S113027014C0883091F460E081E40E948C0061E055
S113028081E40E948C0062E081E40E948C0063E0BF
S113029081E40E948C0010926000FF91EF91BF9165
S11302A0AF919F918F917F916F915F914F913F910A
S11302B02F910F900FBE0F901F901895683008F083
S11302C080C0442321F0413009F440C07CC0823412
S11302D0B1F018F4813431F078C08334E9F0843417
S11302E041F173C02AB381E090E002C0880F991FE6
S11302F06A95E2F7809582238ABB80E0089527B34C
S113030081E090E002C0880F991F6A95E2F780951A
S1130310822387BB80E0089524B381E090E002C08B
S1130320880F991F6A95E2F78095822384BB80E049
S1130330089521B381E090E002C0880F991F6A9567
S1130340E2F78095822381BB80E008958234A9F08E
S113035018F4813431F03BC08334D9F0843429F16A
S113036036C02AB381E090E002C0880F991F6A95D5
S1130370E2F7822B8ABB80E0089527B381E090E006
S113038002C0880F991F6A95E2F7822B87BB80E031
S1130390089524B381E090E002C0880F991F6A9504
S11303A0E2F7822B84BB80E0089521B381E090E0E2
S11303B002C0880F991F6A95E2F7822B81BB80E007
S11303C0089582E0089583E0089581E0089581E02E
S11303D00895683008F080C0442321F0413009F4C6
S11303E040C07CC08234B1F018F4813431F078C05C
S11303F08334E9F0843441F173C02BB381E090E09D
S113040002C0880F991F6A95E2F7809582238BBBFF
S113041080E0089528B381E090E002C0880F991F1E
S11304206A95E2F78095822388BB80E0089525B31E
S113043081E090E002C0880F991F6A95E2F78095E9
S1130440822385BB80E0089522B381E090E002C05E
S1130450880F991F6A95E2F78095822382BB80E01A
S113046008958234A9F018F4813431F03BC0833408
S1130470D9F0843429F136C02BB381E090E002C076
S1130480880F991F6A95E2F7822B8BBB80E0089551
S11304902BB381E090E002C0880F991F6A95E2F7C0
S11304A0822B8BBB80E008952BB381E090E002C0E7
S11304B0880F991F6A95E2F7822B8BBB80E0089521
S11304C02BB381E090E002C0880F991F6A95E2F790
S11304D0822B8BBB80E0089582E0089584E0089528
S11304E081E0089581E008958330B0F4813049F0CB
S11304F018F0823059F00FC08BB780648BBF80E056
S113050008958BB780688BBF80E008958BB78062B5
S11305108BBF80E00895089581E00895843008F049
S11305206BC0813081F120F0823009F456C063C081
S1130530653008F063C0613071F028F0623099F0E2
S11305406330C9F020C085B78E7F85BF85B78D7FA6
S113055085BF82E0089585B7816085BF85B78D7FAB
S113056085BF82E0089585B78E7F85BF85B7826099
S113057085BF82E0089585B7816085BF85B78260B5
S113058085BF82E008956530D8F5613071F028F0B8
S1130590623099F06330C9F020C085B78B7F85BF86
S11305A085B7877F85BF82E0089585B7846085BF5E
S11305B085B7877F85BF82E0089585B78B7F85BF28
S11305C085B7886085BF82E0089585B7846085BF5C
S11305D085B7886085BF82E00895653098F46230FD
S11305E019F0633029F007C084B78F7B84BF03C040
S11305F084B7806484BF089581E0089583E00895FA
S10F060083E0089583E00895F894FFCF90
S9030000FC
