:100000000C942A000C9447000C9447000C94470071
:100010000C9447000C9447000C9447000C94470044
:100020000C9447000C9447000C9447000C94470034
:100030000C9447000C9491020C9447000C944102DC
:100040000C9447000C9447000C9447000C94470014
:100050000C94470011241FBECFE5D8E0DEBFCDBF12
:1000600010E0A0E6B0E0E8EAF6E002C005900D92EC
:10007000A037B107D9F724E0A0E7B0E001C01D9296
:10008000A33EB207E1F70E945D000C9452030C946A
:1000900000008AE790E00E94D50284E00E945900A7
:1000A00085E00E94590008958AE790E00E94FD02D1
:1000B000089560E00E94620008950E9449000E9435
:1000C0005400FDCF982F9695969596958770613040
:1000D00009F455C020F0623009F4A1C008959130B0
:1000E000C1F028F0923039F19330B9F108954AB354
:1000F00021E030E0B90102C0660F771F8A95E2F770
:10010000CB01942F982B9ABB9BB3809589238BBBF3
:10011000089547B321E030E0B90102C0660F771FB0
:100120008A95E2F7CB01942F982B97BB98B38095D3
:10013000892388BB089544B321E030E0B90102C0AF
:10014000660F771F8A95E2F7CB01942F982B94BB0B
:1001500095B38095892385BB089541B321E030E0B4
:10016000B90102C0660F771F8A95E2F7CB01942F81
:10017000982B91BB92B38095892382BB08959130CF
:10018000C1F028F0923039F19330B9F108954AB3B3
:1001900021E030E0B90102C0660F771F8A95E2F7CF
:1001A000CB018095942F98239ABB9BB389238BBB5B
:1001B000089547B321E030E0B90102C0660F771F10
:1001C0008A95E2F7CB018095942F982397BB98B33B
:1001D000892388BB089544B321E030E0B90102C00F
:1001E000660F771F8A95E2F7CB018095942F9823AD
:1001F00094BB95B3892385BB089541B321E030E0DA
:10020000B90102C0660F771F8A95E2F7CB0180958E
:10021000942F982391BB92B3892382BB0895913088
:10022000C1F028F0923039F19330B9F108954AB312
:1002300021E030E0B90102C0660F771F8A95E2F72E
:10024000CB01962F909594239ABB9BB3892B8BBBA4
:10025000089547B321E030E0B90102C0660F771F6F
:100260008A95E2F7CB01962F9095942397BB98B38C
:10027000892B88BB089544B321E030E0B90102C066
:10028000660F771F8A95E2F7CB01962F90959423FE
:1002900094BB95B3892B85BB089541B321E030E031
:1002A000B90102C0660F771F8A95E2F7CB01962F3E
:1002B0009095942391BB92B3892B82BB0895982F7C
:1002C0009695969596958770913099F028F0923092
:1002D000E9F0933041F108954BB321E030E0B901EA
:1002E00002C0660F771F8A95E2F7CB0184278BBB8C
:1002F000089548B321E030E0B90102C0660F771FCE
:100300008A95E2F7CB01842788BB089545B321E0A5
:1003100030E0B90102C0660F771F8A95E2F7CB0182
:10032000842785BB089542B321E030E0B90102C0C3
:10033000660F771F8A95E2F7CB01842782BB089569
:1003400080916400813049F018F0823059F00FC07C
:100350008FEC89B910BC80E00BC087E689B910BC6E
:1003600080E006C010BC83E389B980E001C082E070
:100370009BB19D7F9BB990916600913021F49AB119
:1003800090689AB907C0911104C09AB19F779AB941
:1003900001C082E090916800913021F49AB190649C
:1003A0009AB907C0911104C09AB19F7B9AB901C054
:1003B00082E090916500913021F49AB190619AB9F0
:1003C00007C0911104C09AB19F7E9AB901C082E022
:1003D00090916700913021F49AB198609AB907C062
:1003E000911104C09AB1977F9AB901C082E09091AF
:1003F0006300923069F028F4992341F0913089F03C
:100400000DC0933039F0943039F008C090E00AC044
:1004100094E008C096E006C096E004C090E082E058
:1004200001C092E0811102C0906890BD9FB79068B2
:100430009FBF08957093E2006093E100BC0183EEDA
:1004400090E00E944B03E0917800F0E0ED51FF4F07
:1004500080818CB980E00895089508956115710533
:1004600079F0811105C0709373006093720006C02B
:10047000813021F4709371006093700080E00895E2
:1004800008951F920F920FB60F9211242F933F934E
:100490004F935F936F937F938F939F93AF93BF938C
:1004A000EF93FF9380916000909161002091E100B3
:1004B0003091E20028173907A8F0FC01ED51FF4FF9
:1004C0002081222379F0FC01ED51FF4F80818CB90E
:1004D00080916000909161000196909361008093FB
:1004E00060000EC081E080937400E0917200F09192
:1004F0007300099581E090E0909361008093600023
:10050000FF91EF91BF91AF919F918F917F916F91EB
:100510005F914F913F912F910F900FBE0F901F90C1
:1005200018951F920F920FB60F9211242F933F939D
:100530004F935F936F937F938F939F93AF93BF93EB
:10054000EF93FF93E09178002E2F30E080917600BA
:10055000909177008217930748F0D9018CB1AD5183
:10056000BF4F8C93EF5FE09378000EC0F0E0ED5149
:10057000FF4F10821092780081E080937500E09127
:100580007000F09171000995FF91EF91BF91AF91CB
:100590009F918F917F916F915F914F913F912F919B
:1005A0000F900FBE0F901F90189580917A008823AE
:1005B00021F0833080F480E008950E94A0016CE275
:1005C00072E081E00E942E026DE272E080E00E9403
:1005D0002E0280E0089581E0089590917A00992399
:1005E00021F0933040F480E00895CB01BA010E94DD
:1005F0001A0280E0089581E0089580917A008823AE
:1006000029F0833008F043C080E0089580917500A0
:1006100090917600019719F52FEF83ED90E321502B
:1006200080409040E1F700C0000080917900811186
:1006300008C084E00E945F01809179008F5F809301
:100640007900109276001092750046E050E069E65D
:1006500070E08AE790E00E94ED0280E008958091CA
:100660007400909175000197A1F42FEF83ED90E352
:10067000215080409040E1F700C0000085E00E94DA
:100680005F01109275001092740080E0089581E07F
:10069000089580E00895FB01DC0101900D92002097
:0806A000E1F70895F894FFCF83
:1006A8000100000302010101016D6F6D656E00001C
:00000001FF
