:100000000C9432000C94D6030C94FF030C94280437
:100010000C944F000C944F000C944F000C944F0024
:100020000C944F000C944F000C94F4040C944F006B
:100030000C944F000C944F000C944F000C944F0004
:100040000C944F000C944F000C944F000C944F00F4
:100050000C944F00E600F700080119012A013B014A
:100060004C015D0111241FBECFE5D8E0DEBFCDBF3E
:1000700010E0A0E6B0E0E2E1FBE002C005900D92E6
:10008000A236B107D9F720E0A2E6B0E001C01D9288
:10009000AA37B207E1F70E942E020C9487050C9450
:1000A0000000809165008230E9F028F4882341F057
:1000B000813079F008958330F1F0843029F108958A
:1000C00081E08093610099E09093600080936500E7
:1000D000089582E08093610098E09093600080939F
:1000E0006500089583E08093610097E0909360003D
:1000F00080936500089585E080936100809360009F
:1001000084E080936500089588E08093610082E038
:100110008093600010926500089560E084E40E947E
:10012000F30162E084E40E94F30160E081E40E9454
:10013000070261E081E40E94070262E081E40E941C
:10014000070263E081E40E94070260E081E40E940C
:10015000210261E081E40E94210262E081E40E94C8
:10016000210263E081E40E94210286E00E948A036A
:1001700061E570E086E00E94BE0380E00E945104C9
:1001800044E650E060E070E080E00E9469046AEBC1
:1001900071E080E00E94DC0480E00E94C5040895C4
:1001A000CF93DF93EC01662321F0613009F497C00F
:1001B000A6C0E8818E2F90E0FC013197E830F10570
:1001C00008F09DC0E65DFF4F0C94670560E081E498
:1001D0000E94140261E081E40E94210262E081E455
:1001E0000E94210263E081E40E94210288C060E055
:1001F00081E40E94140261E081E40E94140262E042
:1002000081E40E94210263E081E40E94210277C020
:1002100060E081E40E94140261E081E40E94140223
:1002200062E081E40E94140263E081E40E94210202
:1002300066C060E081E40E94140261E081E40E94F3
:10024000140262E081E40E94140263E081E40E94EF
:10025000140255C060E081E40E94210261E081E463
:100260000E94140262E081E40E94140263E081E4CF
:100270000E94140244C060E081E40E94210261E017
:1002800081E40E94210262E081E40E94140263E0A2
:1002900081E40E94140233C060E081E40E942102E4
:1002A00061E081E40E94210262E081E40E94210277
:1002B00063E081E40E94140222C060E081E40E94B5
:1002C000210261E081E40E94210262E081E40E9457
:1002D000210263E081E40E942102188210C060E0E4
:1002E00081E40E94210261E081E40E94210262E037
:1002F00081E40E94210263E081E40E942102DF91F7
:10030000CF910895CF93DF931F92CDB7DEB71982B7
:10031000AE014F5F5F4F60E084E40E94000289817C
:100320008823A9F3AE014F5F5F4F60E084E40E9431
:1003300000028981882359F3AE014F5F5F4F60E06F
:1003400084E40E940002809164008F5F80936400C7
:100350006091620084E690E00E94D00007C0AE0188
:100360004F5F5F4F60E084E40E9400028981811149
:10037000F6CFCDCF2091630080916100281768F4FB
:1003800060E084E690E00E94D000109262008091CC
:1003900063008F5F809363000895281718F130E0A1
:1003A0004091600090E0840F911D28173907D4F424
:1003B00061E084E690E00E94D00081E080936200DA
:1003C000809163008F5F8093630090E040916100B3
:1003D0002091600030E0240F311D8217930714F044
:1003E000109263000895853438F4683038F440E0A2
:1003F0000E94330280E0089581E0089582E008952C
:10040000853420F4683010F40E944903089585343F
:1004100038F4683038F441E00E94330280E00895F7
:1004200081E0089582E00895853438F4683038F426
:1004300041E00E94BE0280E0089581E0089582E0DC
:100440000895853438F4683038F440E00E94BE02E4
:1004500080E0089581E0089582E008950E948D0073
:100460000E948201FFCF683008F080C0442321F051
:10047000413009F440C07CC08234B1F018F48134BA
:1004800031F078C08334E9F0843441F173C02AB389
:1004900081E090E002C0880F991F6A95E2F780958D
:1004A00082238ABB80E0089527B381E090E002C0F8
:1004B000880F991F6A95E2F78095822387BB80E0B9
:1004C000089524B381E090E002C0880F991F6A95D7
:1004D000E2F78095822384BB80E0089521B381E018
:1004E00090E002C0880F991F6A95E2F780958223F9
:1004F00081BB80E008958234A9F018F4813431F092
:100500003BC08334D9F0843429F136C02AB381E06A
:1005100090E002C0880F991F6A95E2F7822B8ABB90
:1005200080E0089527B381E090E002C0880F991F12
:100530006A95E2F7822B87BB80E0089524B381E0BF
:1005400090E002C0880F991F6A95E2F7822B84BB66
:1005500080E0089521B381E090E002C0880F991FE8
:100560006A95E2F7822B81BB80E0089582E00895CE
:1005700083E0089581E0089581E00895683008F0EF
:1005800080C0442321F0413009F440C07CC0823453
:10059000B1F018F4813431F078C08334E9F0843458
:1005A00041F173C02BB381E090E002C0880F991F26
:1005B0006A95E2F7809582238BBB80E0089528B38B
:1005C00081E090E002C0880F991F6A95E2F780955C
:1005D000822388BB80E0089525B381E090E002C0CB
:1005E000880F991F6A95E2F78095822385BB80E08A
:1005F000089522B381E090E002C0880F991F6A95A8
:10060000E2F78095822382BB80E008958234A9F0CE
:1006100018F4813431F03BC08334D9F0843429F1AB
:1006200036C02BB381E090E002C0880F991F6A9515
:10063000E2F7822B8BBB80E008952BB381E090E042
:1006400002C0880F991F6A95E2F7822B8BBB80E06E
:1006500008952BB381E090E002C0880F991F6A953E
:10066000E2F7822B8BBB80E008952BB381E090E012
:1006700002C0880F991F6A95E2F7822B8BBB80E03E
:10068000089582E0089584E0089581E0089581E06E
:1006900008956830D8F58234A9F018F4813431F027
:1006A00037C08334D9F0843429F132C089B390E063
:1006B00002C0959587956A95E2F78170FA0180836B
:1006C00080E0089586B390E002C0959587956A957D
:1006D000E2F78170FA01808380E0089583B390E0AF
:1006E00002C0959587956A95E2F78170FA0180833B
:1006F00080E0089580B390E002C0959587956A9553
:10070000E2F78170FA01808380E0089582E0089525
:1007100081E00895863029F0873059F08530B1F4B2
:1007200010C095B79E7F95BF95B79D7F95BF90E010
:100730000EC095B79B7F95BF95B7977F95BF90E00B
:1007400006C095B79F7B95BF90E001C091E08630D1
:1007500029F0873039F0853069F408C08BB78064A0
:100760008BBF09C08BB780688BBF05C08BB7806219
:100770008BBF01C091E07894892F089561157105B0
:10078000A1F0863029F470936B0060936A0008959D
:10079000873029F47093690060936800089585306C
:1007A00021F4709367006093660008951F920F9282
:1007B0000FB60F9211242F933F934F935F936F9334
:1007C0007F938F939F93AF93BF93EF93FF93E091AA
:1007D0006A00F0916B00309709F00995FF91EF9155
:1007E000BF91AF919F918F917F916F915F914F9149
:1007F0003F912F910F900FBE0F901F9018951F9251
:100800000F920FB60F9211242F933F934F935F9344
:100810006F937F938F939F93AF93BF93EF93FF93C8
:10082000E0916800F0916900309709F00995FF9117
:10083000EF91BF91AF919F918F917F916F915F9158
:100840004F913F912F910F900FBE0F901F901895D1
:100850001F920F920FB60F9211242F933F934F9335
:100860005F936F937F938F939F93AF93BF93EF9318
:10087000FF93E0916600F0916700309709F00995C9
:10088000FF91EF91BF91AF919F918F917F916F9168
:100890005F914F913F912F910F900FBE0F901F903E
:1008A000189581110CC083B7886083BF83B78F7B95
:1008B00083BF89B7826089BF789480E008958130D2
:1008C00021F0823021F480E0089580E0089581E0F5
:1008D00008958F929F92AF92BF92CF92DF92EF9244
:1008E000FF92CF9381113EC0A8EEB3E09A01AB0115
:1008F0000E946D056B017C01689413F8F694E794EF
:10090000D794C7941694D1F7CFEF01C0C1508C2F64
:1009100090E0A0E0B0E0C816D906EA06FB06B0F306
:1009200001C0C1508C2E912CA12CB12CC701B60155
:10093000A50194010E944505672B682B692B89F757
:10094000C701B601A50194010E94450520937600D8
:10095000309377004093780050937900C150CCBF1A
:1009600080E009C0813021F0823021F480E003C0B2
:1009700080E001C081E0CF91FF90EF90DF90CF90B9
:10098000BF90AF909F908F90089581110BC083B757
:10099000846083BF83B78D7F83BF83B78E7F83BF20
:1009A00080E00895813021F0823021F480E00895C4
:1009B00080E0089581E0089561157105A1F081112D
:1009C00005C070937500609374000895813029F418
:1009D00070937300609372000895823021F47093D5
:1009E00071006093700008951F920F920FB60F92DE
:1009F00011242F933F934F935F936F937F938F9324
:100A00009F93AF93BF93EF93FF9380916C0090916E
:100A10006D00A0916E00B0916F000196A11DB11DF7
:100A200080936C0090936D00A0936E00B0936F0064
:100A30004091760050917700609178007091790034
:100A400084179507A607B70779F4E0917400F09131
:100A50007500309709F0099510926C0010926D00A6
:100A600010926E0010926F00FF91EF91BF91AF91C5
:100A70009F918F917F916F915F914F913F912F91B6
:100A80000F900FBE0F901F901895A1E21A2EAA1B6F
:100A9000BB1BFD010DC0AA1FBB1FEE1FFF1FA2172E
:100AA000B307E407F50720F0A21BB30BE40BF50B2B
:100AB000661F771F881F991F1A9469F760957095B4
:100AC000809590959B01AC01BD01CF010895EE0F7B
:100AD000FF1F0590F491E02D09940E947805A59FD1
:100AE000900DB49F900DA49F800D911D1124089529
:100AF000A29FB001B39FC001A39F700D811D11245F
:100B0000911DB29F700D811D1124911D0895F894BF
:020B1000FFCF15
:020B12000901D7
:00000001FF
