S00F000070726F6A6563742E737265631E
S11300000C942A000C9447000C9447000C9447006D
S11300100C9447000C9447000C9447000C94470040
S11300200C9447000C9447000C9447000C94470030
S11300300C9447000C94C8020C9447000C9473026F
S11300400C9447000C9447000C9447000C94470010
S11300500C94470011241FBECFE5D8E0DEBFCDBF0E
S113006010E0A0E6B0E0E8EFF6E002C005900D92E3
S1130070A037B107D9F724E0A0E7B0E001C01D9292
S1130080A43EB207E1F70E947E000C947A030C941C
S11300900000CF93DF9300D000D000D0CDB7DEB7FF
S11300A08BE790E00E940F0384E00E947A0085E0D1
S11300B00E947A0086E0E9E6F0E0DE011196019004
S11300C00D928A95E1F745E050E0BE016F5F7F4FE6
S11300D08BE790E00E94270326960FB6F894DEBFC4
S11300E00FBECDBFDF91CF9108958BE790E00E94C2
S11300F03703089560E00E948C0008950E9449002F
S11301000E9475002FEF80E792E0215080409040DC
S1130110E1F700C00000F4CF982F96959695969538
S11301208770613009F455C020F0623009F4A1C031
S113013008959130C1F028F0923039F19330B9F13B
S113014008954AB321E030E0B90102C0660F771F79
S11301508A95E2F7CB01942F982B9ABB9BB3809599
S113016089238BBB089547B321E030E0B90102C075
S1130170660F771F8A95E2F7CB01942F982B97BBD4
S113018098B38095892388BB089544B321E030E077
S1130190B90102C0660F771F8A95E2F7CB01942F4D
S11301A0982B94BB95B38095892385BB089541B35F
S11301B021E030E0B90102C0660F771F8A95E2F7AB
S11301C0CB01942F982B91BB92B38095892382BB4A
S11301D008959130C1F028F0923039F19330B9F19B
S11301E008954AB321E030E0B90102C0660F771FD9
S11301F08A95E2F7CB018095942F98239ABB9BB301
S113020089238BBB089547B321E030E0B90102C0D4
S1130210660F771F8A95E2F7CB018095942F982378
S113022097BB98B3892388BB089544B321E030E099
S1130230B90102C0660F771F8A95E2F7CB0180955A
S1130240942F982394BB95B3892385BB089541B318
S113025021E030E0B90102C0660F771F8A95E2F70A
S1130260CB018095942F982391BB92B3892382BBB1
S113027008959130C1F028F0923039F19330B9F1FA
S113028008954AB321E030E0B90102C0660F771F38
S11302908A95E2F7CB01962F909594239ABB9BB352
S11302A0892B8BBB089547B321E030E0B90102C02C
S11302B0660F771F8A95E2F7CB01962F90959423CA
S11302C097BB98B3892B88BB089544B321E030E0F1
S11302D0B90102C0660F771F8A95E2F7CB01962F0A
S11302E09095942394BB95B3892B85BB089541B312
S11302F021E030E0B90102C0660F771F8A95E2F76A
S1130300CB01962F9095942391BB92B3892B82BBFA
S11303100895982F9695969596958770913099F0B3
S113032028F09230E9F0933041F108954BB321E085
S113033030E0B90102C0660F771F8A95E2F7CB015E
S113034084278BBB089548B321E030E0B90102C093
S1130350660F771F8A95E2F7CB01842788BB08953F
S113036045B321E030E0B90102C0660F771F8A95DA
S1130370E2F7CB01842785BB089542B321E030E046
S1130380B90102C0660F771F8A95E2F7CB01842773
S113039082BB089580916400813049F018F0823066
S11303A059F00FC08FEC89B910BC80E00BC087E610
S11303B089B910BC80E006C010BC83E389B980E031
S11303C001C082E09BB19D7F9BB990916600913002
S11303D021F49AB190689AB907C0911104C09AB1F6
S11303E09F779AB901C082E090916800913021F41E
S11303F09AB190649AB907C0911104C09AB19F7BD5
S11304009AB901C082E090916500913021F49AB1CB
S113041090619AB907C0911104C09AB19F7E9AB9AC
S113042001C082E090916700913021F49AB1986004
S11304309AB907C0911104C09AB1977F9AB901C0C3
S113044082E090916300923069F028F4992341F09E
S1130450913089F00DC0933039F0943039F008C0F0
S113046090E00AC094E008C096E006C096E004C09C
S113047090E082E001C092E0811102C0906890BDDA
S11304809FB790689FBF08957093E3006093E20064
S1130490BC0184EE90E00E947303E0917A00F0E0E6
S11304A0EC51FF4F80818CB980E0089580917600F3
S11304B0909177000895809174009091750008954B
S11304C06115710579F0811105C070937300609313
S11304D0720006C0813021F4709371006093700043
S11304E080E0089508951F920F920FB60F92112481
S11304F02F933F934F935F936F937F938F939F9328
S1130500AF93BF93CF93DF93EF93FF9380916000FA
S1130510909161002091E2003091E300281739079F
S1130520A8F0FC01EC51FF4F2081222379F0FC015B
S1130530EC51FF4F80818CB98091600090916100F3
S1130540019690936100809360000FC0C1E0D0E0F9
S1130550D0937500C0937400E0917200F091730021
S11305600995D0936100C0936000FF91EF91DF91F2
S1130570CF91BF91AF919F918F917F916F915F9137
S11305804F913F912F910F900FBE0F901F90189590
S11305901F920F920FB60F9211242F933F934F93F4
S11305A05F936F937F938F939F93AF93BF93EF93D7
S11305B0FF93E0917A002E2F30E0809178009091A3
S11305C079008217930748F0D9018CB1AC51BF4F21
S11305D08C93EF5FE0937A0011C0F0E0EC51FF4F91
S11305E0108210927A0081E090E0909377008093DB
S11305F07600E0917000F09171000995FF91EF9100
S1130600BF91AF919F918F917F916F915F914F9126
S11306103F912F910F900FBE0F901F9018958091CE
S11306207B00882321F0833080F480E008950E94C9
S1130630CA016BE572E080E00E94600266E572E048
S113064081E00E94600280E0089581E00895909125
S11306507B00992321F0933040F480E00895CB018E
S1130660BA010E94440280E0089581E008958091D7
S11306707B00882321F0833090F580E008958091F9
S1130680760090917700019791F42FEF83ED90E33A
S1130690215080409040E1F700C0000084E00E94B7
S11306A08901109277001092760080E0089580917D
S11306B07400909175000197A1F42FEF83ED90E3FE
S11306C0215080409040E1F700C0000085E00E9486
S11306D08901109275001092740080E0089581E001
S11306E0089580E00895FB01DC0101900D92002043
S10B06F0E1F70895F894FFCF2F
S11306F80100000302010101016D6F6D656E0000C8
S9030000FC
