:100000000C942A000C943E010C944F010C943C007B
:100010000C943C000C9414050C943C000C943C0093
:100020000C943C000C943C000C943C000C94830415
:100030000C943C000C943C000C943C000C943C0050
:100040000C943C000C943C000C943C000C943C0040
:100050000C943C0011241FBECFE5D8E0DEBFCDBF1D
:1000600020E0A0E6B0E001C01D92A938B207E1F798
:100070000E9418020C9483050C94000040E062E09A
:1000800084E40E941D0241E062E084E40E94A80230
:1000900040E063E084E40E941D0241E063E084E408
:1000A0000E94A80260E081E40E94F10161E081E425
:1000B0000E94F10162E081E40E94F10163E081E4C9
:1000C0000E94F101789463E080E00E944D0380E09B
:1000D0000E94330363E081E00E944D0381E00E94AF
:1000E000330382E00E94C30382E00E94E903089583
:1000F00080916100813089F460E081E40E94FE011A
:1001000061E081E40E940B0262E081E40E940B0244
:1001100063E081E40E940B0286C0823089F460E0D3
:1001200081E40E94FE0161E081E40E94FE0162E040
:1001300081E40E940B0263E081E40E940B0273C021
:10014000833089F460E081E40E94FE0161E081E493
:100150000E94FE0162E081E40E94FE0163E081E40E
:100160000E940B0260C0843089F460E081E40E9448
:10017000FE0161E081E40E94FE0162E081E40E94F0
:10018000FE0163E081E40E94FE014DC0853089F4E8
:1001900060E081E40E940B0261E081E40E94FE01C4
:1001A00062E081E40E94FE0163E081E40E94FE01BE
:1001B0003AC0863089F460E081E40E940B0261E07D
:1001C00081E40E940B0262E081E40E94FE0163E090
:1001D00081E40E94FE0127C0873089F460E081E459
:1001E0000E940B0261E081E40E940B0262E081E464
:1001F0000E940B0263E081E40E94FE0114C088307B
:1002000091F460E081E40E940B0261E081E40E94CD
:100210000B0262E081E40E940B0263E081E40E9431
:100220000B021092610080916000882331F14091AF
:10023000660050916700609168007091690082E0EB
:100240000E942D0460E081E40E940B0261E081E4E1
:100250000E940B0262E081E40E940B0263E081E4F1
:100260000E940B0240916200509163006091640013
:100270007091650082E00E942D0408951F920F92F4
:100280000FB60F9211248F93809161008F5F80933E
:1002900061008F910F900FBE0F901F9018951F92C5
:1002A0000F920FB60F9211248F939F93AF93BF932A
:1002B000809160008F5F80936000833009F43FC0BD
:1002C00028F4813051F0823009F180C0843009F483
:1002D0004FC0853009F461C079C084E690E0A0E0A9
:1002E000B0E08093660090936700A0936800B0939D
:1002F000690084E893E0A0E0B0E08093620090930E
:100300006300A0936400B093650062C088EC90E045
:10031000A0E0B0E08093660090936700A09368002F
:10032000B093690080E293E0A0E0B0E080936200C7
:1003300090936300A0936400B093650049C08CE281
:1003400091E0A0E0B0E08093660090936700A093F6
:100350006800B09369008CEB92E0A0E0B0E080937D
:10036000620090936300A0936400B093650030C076
:1003700084EF91E0A0E0B0E0809366009093670086
:10038000A0936800B093690080936200909363002B
:10039000A0936400B09365001BC080E293E0A0E0EE
:1003A000B0E08093660090936700A0936800B093DC
:1003B000690088EC90E0A0E0B0E080936200909348
:1003C0006300A0936400B093650002C010926000C7
:1003D000BF91AF919F918F910F900FBE0F901F9083
:1003E0001895853438F4683038F441E00E941D02D5
:1003F00080E0089581E0089582E00895853438F41E
:10040000683038F441E00E94A80280E0089581E05D
:10041000089582E00895853438F4683038F440E077
:100420000E94A80280E0089581E0089582E0089586
:100430000E943E000E947800FDCF683008F080C026
:10044000442321F0413009F440C07CC08234B1F033
:1004500018F4813431F078C08334E9F0843441F108
:1004600073C02AB381E090E002C0880F991F6A959B
:10047000E2F7809582238ABB80E0089527B381E06C
:1004800090E002C0880F991F6A95E2F78095822359
:1004900087BB80E0089524B381E090E002C0880F1C
:1004A000991F6A95E2F78095822384BB80E00895C6
:1004B00021B381E090E002C0880F991F6A95E2F7AE
:1004C0008095822381BB80E008958234A9F018F4DE
:1004D000813431F03BC08334D9F0843429F136C003
:1004E0002AB381E090E002C0880F991F6A95E2F775
:1004F000822B8ABB80E0089527B381E090E002C0A0
:10050000880F991F6A95E2F7822B87BB80E00895D8
:1005100024B381E090E002C0880F991F6A95E2F74A
:10052000822B84BB80E0089521B381E090E002C07B
:10053000880F991F6A95E2F7822B81BB80E00895AE
:1005400082E0089584E0089581E0089581E00895AF
:10055000683008F080C0442321F0413009F440C0E5
:100560007CC08234B1F018F4813431F078C0833427
:10057000E9F0843441F173C02BB381E090E002C014
:10058000880F991F6A95E2F7809582238BBB80E0E4
:10059000089528B381E090E002C0880F991F6A9502
:1005A000E2F78095822388BB80E0089525B381E03F
:1005B00090E002C0880F991F6A95E2F78095822328
:1005C00085BB80E0089522B381E090E002C0880FEF
:1005D000991F6A95E2F78095822382BB80E0089597
:1005E0008234A9F018F4813431F03BC08334D9F05F
:1005F000843429F136C02BB381E090E002C0880F2B
:10060000991F6A95E2F7822B8BBB80E0089528B38F
:1006100081E090E002C0880F991F6A95E2F7822B73
:1006200088BB80E0089525B381E090E002C0880F88
:10063000991F6A95E2F7822B85BB80E0089522B36B
:1006400081E090E002C0880F991F6A95E2F7822B43
:1006500082BB80E0089582E0089583E0089581E000
:10066000089581E008958330B0F4813049F018F0A6
:10067000823059F00FC08BB780648BBF80E0089543
:100680008BB780688BBF80E008958BB780628BBF8B
:1006900080E00895089581E00895843008F06BC0EB
:1006A000813081F120F0823009F456C063C065309A
:1006B00008F063C0613071F028F0623099F0633067
:1006C000C9F020C085B78E7F85BF85B78D7F85BF78
:1006D00082E0089585B7816085BF85B78D7F85BF2E
:1006E00082E0089585B78E7F85BF85B7826085BF1C
:1006F00082E0089585B7816085BF85B7826085BF38
:1007000082E008956530D8F5613071F028F06230EC
:1007100099F06330C9F020C085B78B7F85BF85B75E
:10072000877F85BF82E0089585B7846085BF85B7E0
:10073000877F85BF82E0089585B78B7F85BF85B7AA
:10074000886085BF82E0089585B7846085BF85B7DE
:10075000886085BF82E00895653098F4623019F0B2
:10076000633029F007C084B78F7B84BF03C084B790
:10077000806484BF089581E0089583E0089583E054
:10078000089583E0089581110EC083B7877F83BFEA
:1007900083B78F7B83BF89B7816089BF8FB780683C
:1007A0008FBF80E00895813081F0823081F485B57B
:1007B000877F85BD85B58F7B85BD89B7806489BFFF
:1007C0008FB780688FBF80E0089580E0089581E052
:1007D000089581110BC083B7846083BF83B78D7F79
:1007E00083BF83B78E7F83BF80E00895813069F037
:1007F000823069F485B5846085BD85B5826085BD2C
:1008000085B58E7F85BD80E0089580E0089581E004
:100810000895811107C089B78E7F89BF89B78D7F01
:1008200089BF0AC0813041F0823031F489B78F7BB3
:1008300089BF89B78F7789BF81E00895811104C08E
:1008400089B7816089BF07C0813029F0823019F4EF
:1008500089B7806489BF81E00895CF92DF92EF92DB
:10086000FF920F931F93882309F445C0813009F448
:1008700042C0823009F03FC06A017B010E94090436
:10088000A8EEB3E0A70196010E9469056B017C0107
:10089000689413F8F694E794D794C7941694D1F714
:1008A0008B019C010F2EFCE0369527951795079537
:1008B000FA95D1F7F02DCC2051F00F5F1F4F2F4F3D
:1008C0003F4FC194C4BC40E050E0BA010CC014BC1E
:1008D000FACF08B606FEFDCF88B7806488BF4F5FA9
:1008E0005F4F6F4F7F4F401751076207730788F3C1
:1008F00082E00E941E0481E01F910F91FF90EF9013
:10090000DF90CF9008951F920F920FB60F9211248F
:100910002F933F934F935F936F937F938F939F9307
:10092000AF93BF93EF93FF9380917300811135C014
:1009300080916F0090917000A0917100B091720051
:100940000196A11DB11D80936F0090937000A0933C
:100950007100B093720040918100509182006091CB
:1009600083007091840084179507A607B70709F0E4
:100970004AC0E0917600F0917700309709F0099530
:1009800010926F001092700010927100109272001D
:1009900080918000819582BF36C080916E0088234F
:1009A000C9F040E064E084E40E94A80240E065E011
:1009B00084E40E94A80280918700819582BF809183
:1009C0008700909188008F3F910509F0E0F4109224
:1009D0006E0019C041E064E084E40E94A80241E096
:1009E00065E084E40E94A80280918500819582BF21
:1009F00080918500909186008F3F910509F018F451
:100A000081E080936E00FF91EF91BF91AF919F9134
:100A10008F917F916F915F914F913F912F910F90A7
:100A20000FBE0F901F9018951F920F920FB60F9246
:100A300011242F933F934F935F936F937F938F93E3
:100A40009F93AF93BF93EF93FF9380916A00909130
:100A50006B00A0916C00B0916D000196A11DB11DBD
:100A600080936A0090936B00A0936C00B0936D002C
:100A700040917C0050917D0060917E0070917F00DC
:100A800084179507A607B70799F4E0917400F091D1
:100A90007500309709F0099510926A0010926B006A
:100AA00010926C0010926D0080917800819582BF49
:100AB000FF91EF91BF91AF919F918F917F916F9136
:100AC0005F914F913F912F910F900FBE0F901F900C
:100AD00018950E947405A59F900DB49F900DA49F3A
:100AE000800D911D11240895A29FB001B39FC001F4
:100AF000A39F700D811D1124911DB29F700D811D4A
:0A0B00001124911D0895F894FFCF11
:00000001FF
