S01400004C45445F53657175656E63652E73726563A3
S11300000C942A000C943C000C943C000C943C008E
S11300100C943C000C943C000C943C000C943C006C
S11300200C943C000C943C000C943C000C943C005C
S11300300C943C000C943C000C943C000C943C004C
S11300400C943C000C943C000C943C000C943C003C
S11300500C943C0011241FBECFE5D8E0DEBFCDBF19
S113006020E0A0E6B0E001C01D92A336B207E1F79C
S11300700E9461010C94BD020C94000060E082E4D3
S11300800E94260160E081E40E943A0161E081E47B
S11300900E943A0162E081E40E943A0163E081E453
S11300A00E943A0160E081E40E94540161E081E42D
S11300B00E94540162E081E40E94540163E081E4FF
S11300C00E945401089542E650E060E082E40E94F8
S11300D033012FEF81EE94E0215080409040E1F70E
S11300E000C0000080916200882349F08091600084
S11300F090916100019690936100809360008091DB
S11301006000909161008130910589F460E081E4A0
S11301100E94470161E081E40E94540162E081E4AD
S11301200E94540163E081E40E94540108958230E6
S1130130910589F460E081E40E94470161E081E473
S11301400E94470162E081E40E94540163E081E47B
S11301500E94540108958330910589F460E081E49C
S11301600E94470161E081E40E94470162E081E46A
S11301700E94470163E081E40E94540108958430A1
S1130180910589F460E081E40E94470161E081E423
S11301900E94470162E081E40E94470163E081E438
S11301A00E94470108958530910589F460E081E457
S11301B00E94540161E081E40E94470162E081E40D
S11301C00E94470163E081E40E944701089586305C
S11301D0910589F460E081E40E94540161E081E4C6
S11301E00E94540162E081E40E94470163E081E4DB
S11301F00E94470108958730910589F460E081E405
S11302000E94540161E081E40E94540162E081E4AF
S11302100E94540163E081E40E9447010895089715
S1130220A1F460E081E40E94540161E081E40E9451
S1130230540162E081E40E94540163E081E40E947D
S1130240540110926100109260000895853438F4CE
S1130250683038F440E00E94660180E0089581E04F
S1130260089582E00895853420F4683010F40E94E3
S11302707C020895853438F4683038F441E00E94F3
S1130280660180E0089581E0089582E00895853450
S113029038F4683038F441E00E94F10180E00895B8
S11302A081E0089582E00895853438F4683038F4A4
S11302B040E00E94F10180E0089581E0089582E029
S11302C008950E943E000E946300FDCF683008F04C
S11302D080C0442321F0413009F440C07CC0823402
S11302E0B1F018F4813431F078C08334E9F0843407
S11302F041F173C02AB381E090E002C0880F991FD6
S11303006A95E2F7809582238ABB80E0089527B33B
S113031081E090E002C0880F991F6A95E2F780950A
S1130320822387BB80E0089524B381E090E002C07B
S1130330880F991F6A95E2F78095822384BB80E039
S1130340089521B381E090E002C0880F991F6A9557
S1130350E2F78095822381BB80E008958234A9F07E
S113036018F4813431F03BC08334D9F0843429F15A
S113037036C02AB381E090E002C0880F991F6A95C5
S1130380E2F7822B8ABB80E0089527B381E090E0F6
S113039002C0880F991F6A95E2F7822B87BB80E021
S11303A0089524B381E090E002C0880F991F6A95F4
S11303B0E2F7822B84BB80E0089521B381E090E0D2
S11303C002C0880F991F6A95E2F7822B81BB80E0F7
S11303D0089582E0089583E0089581E0089581E01E
S11303E00895683008F080C0442321F0413009F4B6
S11303F040C07CC08234B1F018F4813431F078C04C
S11304008334E9F0843441F173C02BB381E090E08C
S113041002C0880F991F6A95E2F7809582238BBBEF
S113042080E0089528B381E090E002C0880F991F0E
S11304306A95E2F78095822388BB80E0089525B30E
S113044081E090E002C0880F991F6A95E2F78095D9
S1130450822385BB80E0089522B381E090E002C04E
S1130460880F991F6A95E2F78095822382BB80E00A
S113047008958234A9F018F4813431F03BC08334F8
S1130480D9F0843429F136C02BB381E090E002C066
S1130490880F991F6A95E2F7822B8BBB80E0089541
S11304A02BB381E090E002C0880F991F6A95E2F7B0
S11304B0822B8BBB80E008952BB381E090E002C0D7
S11304C0880F991F6A95E2F7822B8BBB80E0089511
S11304D02BB381E090E002C0880F991F6A95E2F780
S11304E0822B8BBB80E0089582E0089584E0089518
S11304F081E0089581E008956830D8F58234A9F048
S113050018F4813431F037C08334D9F0843429F1BC
S113051032C089B390E002C0959587956A95E2F759
S11305208170FA01808380E0089586B390E002C070
S1130530959587956A95E2F78170FA01808380E04A
S1130540089583B390E002C0959587956A95E2F784
S11305508170FA01808380E0089580B390E002C046
S1130560959587956A95E2F78170FA01808380E01A
S1110570089582E0089581E00895F894FFCF85
S9030000FC
